{
  "contractName": "Lottery",
  "abi": [
    {
      "constant": true,
      "inputs": [
        {
          "name": "",
          "type": "uint256"
        }
      ],
      "name": "playersAddresses",
      "outputs": [
        {
          "name": "",
          "type": "address"
        }
      ],
      "payable": false,
      "stateMutability": "view",
      "type": "function"
    },
    {
      "inputs": [
        {
          "name": "inTicketPriceWei",
          "type": "uint256"
        },
        {
          "name": "inPayoutPerTicketWei",
          "type": "uint256"
        }
      ],
      "payable": false,
      "stateMutability": "nonpayable",
      "type": "constructor"
    },
    {
      "constant": false,
      "inputs": [
        {
          "name": "inName",
          "type": "string"
        }
      ],
      "name": "buyTicket",
      "outputs": [],
      "payable": true,
      "stateMutability": "payable",
      "type": "function"
    },
    {
      "constant": false,
      "inputs": [
        {
          "name": "inWinner",
          "type": "address"
        }
      ],
      "name": "drawWinner",
      "outputs": [
        {
          "name": "",
          "type": "string"
        },
        {
          "name": "",
          "type": "address"
        },
        {
          "name": "",
          "type": "uint256"
        }
      ],
      "payable": false,
      "stateMutability": "nonpayable",
      "type": "function"
    },
    {
      "constant": false,
      "inputs": [],
      "name": "claimWinnings",
      "outputs": [
        {
          "name": "",
          "type": "string"
        },
        {
          "name": "",
          "type": "uint256"
        }
      ],
      "payable": false,
      "stateMutability": "nonpayable",
      "type": "function"
    },
    {
      "constant": true,
      "inputs": [],
      "name": "getPlayers",
      "outputs": [
        {
          "name": "",
          "type": "address[]"
        }
      ],
      "payable": false,
      "stateMutability": "view",
      "type": "function"
    },
    {
      "constant": true,
      "inputs": [],
      "name": "getTicketPriceWei",
      "outputs": [
        {
          "name": "",
          "type": "uint256"
        }
      ],
      "payable": false,
      "stateMutability": "view",
      "type": "function"
    },
    {
      "constant": true,
      "inputs": [],
      "name": "getPayoutPerTicketWei",
      "outputs": [
        {
          "name": "",
          "type": "uint256"
        }
      ],
      "payable": false,
      "stateMutability": "view",
      "type": "function"
    }
  ],
  "bytecode": "0x60806040526001600360006101000a81548160ff0219169083151502179055506000600360016101000a81548160ff02191690831515021790555034801561004657600080fd5b5060405160408061111e83398101806040528101908080519060200190929190805190602001909291905050508160048190555080600581905550336000806101000a81548173ffffffffffffffffffffffffffffffffffffffff021916908373ffffffffffffffffffffffffffffffffffffffff160217905550505061104c806100d26000396000f300608060405260043610610083576000357c0100000000000000000000000000000000000000000000000000000000900463ffffffff168063472016da146100885780635ade48c9146100f55780638158bfaf146101205780638b5b9ccc1461014b5780638d329a97146101b7578063b401faf1146102ad578063fa30b25114610344575b600080fd5b34801561009457600080fd5b506100b3600480360381019080803590602001909291905050506103a0565b604051808273ffffffffffffffffffffffffffffffffffffffff1673ffffffffffffffffffffffffffffffffffffffff16815260200191505060405180910390f35b34801561010157600080fd5b5061010a6103de565b6040518082815260200191505060405180910390f35b34801561012c57600080fd5b506101356103e8565b6040518082815260200191505060405180910390f35b34801561015757600080fd5b506101606103f2565b6040518080602001828103825283818151815260200191508051906020019060200280838360005b838110156101a3578082015181840152602081019050610188565b505050509050019250505060405180910390f35b3480156101c357600080fd5b506101f8600480360381019080803573ffffffffffffffffffffffffffffffffffffffff169060200190929190505050610480565b60405180806020018473ffffffffffffffffffffffffffffffffffffffff1673ffffffffffffffffffffffffffffffffffffffff168152602001838152602001828103825285818151815260200191508051906020019080838360005b83811015610270578082015181840152602081019050610255565b50505050905090810190601f16801561029d5780820380516001836020036101000a031916815260200191505b5094505050505060405180910390f35b3480156102b957600080fd5b506102c2610790565b6040518080602001838152602001828103825284818151815260200191508051906020019080838360005b838110156103085780820151818401526020810190506102ed565b50505050905090810190601f1680156103355780820380516001836020036101000a031916815260200191505b50935050505060405180910390f35b61039e600480360381019080803590602001908201803590602001908080601f0160208091040260200160405190810160405280939291908181526020018383808284378201915050505050509192919290505050610abd565b005b6007818154811015156103af57fe5b906000526020600020016000915054906101000a900473ffffffffffffffffffffffffffffffffffffffff1681565b6000600554905090565b6000600454905090565b6060600780548060200260200160405190810160405280929190818152602001828054801561047657602002820191906000526020600020905b8160009054906101000a900473ffffffffffffffffffffffffffffffffffffffff1673ffffffffffffffffffffffffffffffffffffffff168152602001906001019080831161042c575b5050505050905090565b606060008060008060009054906101000a900473ffffffffffffffffffffffffffffffffffffffff1673ffffffffffffffffffffffffffffffffffffffff163373ffffffffffffffffffffffffffffffffffffffff16141515610571576040517f08c379a000000000000000000000000000000000000000000000000000000000815260040180806020018281038252603a8152602001807f4f6e6c7920746865204f776e6572206f6620746865206c6f747465727920636f81526020017f6e74726163742063616e2064726177207468652077696e6e657200000000000081525060400191505060405180910390fd5b600360009054906101000a900460ff1615156105f5576040517f08c379a000000000000000000000000000000000000000000000000000000000815260040180806020018281038252601f8152602001807f54686973206c6f747465727920636f6e747261637420697320636c6f7365640081525060200191505060405180910390fd5b6000600360006101000a81548160ff021916908315150217905550600660008673ffffffffffffffffffffffffffffffffffffffff1673ffffffffffffffffffffffffffffffffffffffff16815260200190815260200160002090508060010160009054906101000a900460ff16151561066b57fe5b6005546007805490500260028190555084600160006101000a81548173ffffffffffffffffffffffffffffffffffffffff021916908373ffffffffffffffffffffffffffffffffffffffff16021790555080600001600160009054906101000a900473ffffffffffffffffffffffffffffffffffffffff16600254828054600181600116156101000203166002900480601f01602080910402602001604051908101604052809291908181526020018280546001816001161561010002031660029004801561077b5780601f106107505761010080835404028352916020019161077b565b820191906000526020600020905b81548152906001019060200180831161075e57829003601f168201915b50505050509250935093509350509193909250565b6060600061079c610f5f565b6060600660003373ffffffffffffffffffffffffffffffffffffffff1673ffffffffffffffffffffffffffffffffffffffff168152602001908152602001600020604080519081016040529081600082018054600181600116156101000203166002900480601f0160208091040260200160405190810160405280929190818152602001828054600181600116156101000203166002900480156108815780601f1061085657610100808354040283529160200191610881565b820191906000526020600020905b81548152906001019060200180831161086457829003601f168201915b505050505081526020016001820160009054906101000a900460ff1615151515815250509150816020015115156108b457fe5b600360019054906101000a900460ff1615151561095f576040517f08c379a00000000000000000000000000000000000000000000000000000000081526004018080602001828103825260248152602001807f54686973206c6f747465722068617320616c7265616479206265656e20636c6181526020017f696d65640000000000000000000000000000000000000000000000000000000081525060400191505060405180910390fd5b600160009054906101000a900473ffffffffffffffffffffffffffffffffffffffff1673ffffffffffffffffffffffffffffffffffffffff163373ffffffffffffffffffffffffffffffffffffffff161415610a4f5781600001519050600160009054906101000a900473ffffffffffffffffffffffffffffffffffffffff1673ffffffffffffffffffffffffffffffffffffffff166108fc6002549081150290604051600060405180830381858888f19350505050158015610a26573d6000803e3d6000fd5b506001600360016101000a81548160ff0219169083151502179055508060025493509350610ab7565b6000606060405190810160405280602181526020017f596f7520686176656e277420776f6e20746869732074696d652c20736f72727981526020017f210000000000000000000000000000000000000000000000000000000000000081525090809050935093505b50509091565b6000600360009054906101000a900460ff161515610b43576040517f08c379a000000000000000000000000000000000000000000000000000000000815260040180806020018281038252601f8152602001807f54686973206c6f747465727920636f6e747261637420697320636c6f7365640081525060200191505060405180910390fd5b60045434141515610c08576040517f08c379a00000000000000000000000000000000000000000000000000000000081526004018080602001828103825260438152602001807f506c61796572206d757374207472616e736665722065786163746c792074686581526020017f207469636b6574507269636520696e2057656920746f2062757920612074696381526020017f6b6574000000000000000000000000000000000000000000000000000000000081525060600191505060405180910390fd5b6000809054906101000a900473ffffffffffffffffffffffffffffffffffffffff1673ffffffffffffffffffffffffffffffffffffffff163373ffffffffffffffffffffffffffffffffffffffff1614151515610cf3576040517f08c379a000000000000000000000000000000000000000000000000000000000815260040180806020018281038252602d8152602001807f546865204f776e6572206f6620746865206c6f747465727920636f6e7472616381526020017f742063616e6e6f7420706c61790000000000000000000000000000000000000081525060400191505060405180910390fd5b6008825111151515610d93576040517f08c379a00000000000000000000000000000000000000000000000000000000081526004018080602001828103825260298152602001807f506c61796572206e616d652063616e6e6f74206265206c6f6e6765722074686181526020017f6e2038206368617273000000000000000000000000000000000000000000000081525060400191505060405180910390fd5b600660003373ffffffffffffffffffffffffffffffffffffffff1673ffffffffffffffffffffffffffffffffffffffff16815260200190815260200160002060010160009054906101000a900460ff16151515610e7e576040517f08c379a00000000000000000000000000000000000000000000000000000000081526004018080602001828103825260238152602001807f506c61796572732063616e20627579206d6178696d756d206f6620312074696381526020017f6b6574000000000000000000000000000000000000000000000000000000000081525060400191505060405180910390fd5b600660003373ffffffffffffffffffffffffffffffffffffffff1673ffffffffffffffffffffffffffffffffffffffff168152602001908152602001600020905081816000019080519060200190610ed7929190610f7b565b5060018160010160006101000a81548160ff02191690831515021790555060073390806001815401808255809150509060018203906000526020600020016000909192909190916101000a81548173ffffffffffffffffffffffffffffffffffffffff021916908373ffffffffffffffffffffffffffffffffffffffff160217905550505050565b6040805190810160405280606081526020016000151581525090565b828054600181600116156101000203166002900490600052602060002090601f016020900481019282601f10610fbc57805160ff1916838001178555610fea565b82800160010185558215610fea579182015b82811115610fe9578251825591602001919060010190610fce565b5b509050610ff79190610ffb565b5090565b61101d91905b80821115611019576000816000905550600101611001565b5090565b905600a165627a7a72305820c9b0717de47f74e23c71bad81bd8799ece040311dc629bb04b20e7b8da2a81920029",
  "source": "pragma solidity ^0.4.23;\ncontract Lottery {\n    \n    address internal owner;\n    address internal winner;\n    uint256 internal winningAmount;\n\n    bool internal isActive = true;\n    bool internal isClaimed = false;\n\n    uint256 ticketPriceWei;\n    uint256 payoutPerTicketWei;\n    \n    struct Player {\n        string name;\n        bool isPresent;\n    }\n\n    mapping(address => Player) players;\n    \n    address[] public playersAddresses;\n    \n    constructor(uint256 inTicketPriceWei, uint256 inPayoutPerTicketWei) public { \n        ticketPriceWei = inTicketPriceWei;\n        payoutPerTicketWei = inPayoutPerTicketWei;\n        owner = msg.sender; \n    }\n    \n\n    function buyTicket(string inName) public payable {    \n        require(isActive, \"This lottery contract is closed\");\n        require(msg.value == ticketPriceWei, \"Player must transfer exactly the ticketPrice in Wei to buy a ticket\");\n        require(msg.sender != owner, \"The Owner of the lottery contract cannot play\");\n        require(bytes(inName).length <= 8, \"Player name cannot be longer than 8 chars\");\n\n        require(!players[msg.sender].isPresent, \"Players can buy maximum of 1 ticket\");\n        \n        var player = players[msg.sender];\n        player.name = inName;\n        player.isPresent = true;\n        playersAddresses.push(msg.sender);\n    }\n\n    function drawWinner(address inWinner) public returns (string, address, uint256) {\n        require(msg.sender == owner, \"Only the Owner of the lottery contract can draw the winner\");\n        require(isActive, \"This lottery contract is closed\");\n        isActive = false;\n        \n        var winningPlayer = players[inWinner];\n        assert(winningPlayer.isPresent);\n\n        winningAmount = (uint256)(playersAddresses.length * payoutPerTicketWei);\n        winner = inWinner;\n\n        return (\n            winningPlayer.name,\n            winner,\n            winningAmount\n        );\n    }\n\n    function claimWinnings() public returns (string, uint256) {\n        Player memory winningPlayer = players[msg.sender];\n        assert(winningPlayer.isPresent);\n        require(!isClaimed, \"This lotter has already been claimed\");\n        \n        if (msg.sender == winner) {\n            var name = winningPlayer.name;\n            winner.transfer(winningAmount);\n            isClaimed = true;\n            return (name, winningAmount);\n        } else {\n            return (\"You haven't won this time, sorry!\", 0);\n        }\n\n    }\n\n    function getPlayers() public view returns(address[]) {\n        return playersAddresses;\n    }\n\n    function getTicketPriceWei() public view returns(uint256) {\n        return ticketPriceWei;\n    }\n\n    function getPayoutPerTicketWei() public view returns(uint256) {\n        return payoutPerTicketWei;\n    }\n\n}",
  "sourcePath": "/home/paul/GitRepositories/pauljeremyturner/EthereumHowTo/contract/contracts/Lottery.sol",
  "compiler": {
    "name": "solc",
    "version": "0.4.24+commit.e67f0147.Emscripten.clang"
  },
  "schemaVersion": "2.0.1",
  "updatedAt": "2018-10-13T14:10:12.161Z"
}